{
  "_format": "hh-sol-artifact-1",
  "contractName": "MintContract",
  "sourceName": "contracts/MintContract.sol",
  "abi": [
    {
      "inputs": [],
      "stateMutability": "nonpayable",
      "type": "constructor"
    },
    {
      "anonymous": false,
      "inputs": [
        {
          "indexed": true,
          "internalType": "address",
          "name": "owner",
          "type": "address"
        },
        {
          "indexed": true,
          "internalType": "address",
          "name": "approved",
          "type": "address"
        },
        {
          "indexed": true,
          "internalType": "uint256",
          "name": "tokenId",
          "type": "uint256"
        }
      ],
      "name": "Approval",
      "type": "event"
    },
    {
      "anonymous": false,
      "inputs": [
        {
          "indexed": true,
          "internalType": "address",
          "name": "owner",
          "type": "address"
        },
        {
          "indexed": true,
          "internalType": "address",
          "name": "operator",
          "type": "address"
        },
        {
          "indexed": false,
          "internalType": "bool",
          "name": "approved",
          "type": "bool"
        }
      ],
      "name": "ApprovalForAll",
      "type": "event"
    },
    {
      "anonymous": false,
      "inputs": [
        {
          "indexed": true,
          "internalType": "address",
          "name": "previousOwner",
          "type": "address"
        },
        {
          "indexed": true,
          "internalType": "address",
          "name": "newOwner",
          "type": "address"
        }
      ],
      "name": "OwnershipTransferred",
      "type": "event"
    },
    {
      "anonymous": false,
      "inputs": [
        {
          "indexed": true,
          "internalType": "address",
          "name": "from",
          "type": "address"
        },
        {
          "indexed": true,
          "internalType": "address",
          "name": "to",
          "type": "address"
        },
        {
          "indexed": true,
          "internalType": "uint256",
          "name": "tokenId",
          "type": "uint256"
        }
      ],
      "name": "Transfer",
      "type": "event"
    },
    {
      "inputs": [
        {
          "internalType": "address",
          "name": "to",
          "type": "address"
        },
        {
          "internalType": "uint256",
          "name": "tokenId",
          "type": "uint256"
        }
      ],
      "name": "approve",
      "outputs": [],
      "stateMutability": "nonpayable",
      "type": "function"
    },
    {
      "inputs": [
        {
          "internalType": "address",
          "name": "owner",
          "type": "address"
        }
      ],
      "name": "balanceOf",
      "outputs": [
        {
          "internalType": "uint256",
          "name": "",
          "type": "uint256"
        }
      ],
      "stateMutability": "view",
      "type": "function"
    },
    {
      "inputs": [
        {
          "internalType": "address",
          "name": "adminAddress",
          "type": "address"
        }
      ],
      "name": "createAdminToken",
      "outputs": [],
      "stateMutability": "nonpayable",
      "type": "function"
    },
    {
      "inputs": [],
      "name": "createToken",
      "outputs": [],
      "stateMutability": "nonpayable",
      "type": "function"
    },
    {
      "inputs": [
        {
          "internalType": "uint256",
          "name": "tokenId",
          "type": "uint256"
        }
      ],
      "name": "getApproved",
      "outputs": [
        {
          "internalType": "address",
          "name": "",
          "type": "address"
        }
      ],
      "stateMutability": "view",
      "type": "function"
    },
    {
      "inputs": [
        {
          "internalType": "address",
          "name": "owner",
          "type": "address"
        },
        {
          "internalType": "address",
          "name": "operator",
          "type": "address"
        }
      ],
      "name": "isApprovedForAll",
      "outputs": [
        {
          "internalType": "bool",
          "name": "",
          "type": "bool"
        }
      ],
      "stateMutability": "view",
      "type": "function"
    },
    {
      "inputs": [],
      "name": "maxSupply",
      "outputs": [
        {
          "internalType": "uint256",
          "name": "",
          "type": "uint256"
        }
      ],
      "stateMutability": "view",
      "type": "function"
    },
    {
      "inputs": [],
      "name": "name",
      "outputs": [
        {
          "internalType": "string",
          "name": "",
          "type": "string"
        }
      ],
      "stateMutability": "view",
      "type": "function"
    },
    {
      "inputs": [],
      "name": "owner",
      "outputs": [
        {
          "internalType": "address",
          "name": "",
          "type": "address"
        }
      ],
      "stateMutability": "view",
      "type": "function"
    },
    {
      "inputs": [
        {
          "internalType": "uint256",
          "name": "tokenId",
          "type": "uint256"
        }
      ],
      "name": "ownerOf",
      "outputs": [
        {
          "internalType": "address",
          "name": "",
          "type": "address"
        }
      ],
      "stateMutability": "view",
      "type": "function"
    },
    {
      "inputs": [],
      "name": "renounceOwnership",
      "outputs": [],
      "stateMutability": "nonpayable",
      "type": "function"
    },
    {
      "inputs": [
        {
          "internalType": "address",
          "name": "from",
          "type": "address"
        },
        {
          "internalType": "address",
          "name": "to",
          "type": "address"
        },
        {
          "internalType": "uint256",
          "name": "tokenId",
          "type": "uint256"
        }
      ],
      "name": "safeTransferFrom",
      "outputs": [],
      "stateMutability": "nonpayable",
      "type": "function"
    },
    {
      "inputs": [
        {
          "internalType": "address",
          "name": "from",
          "type": "address"
        },
        {
          "internalType": "address",
          "name": "to",
          "type": "address"
        },
        {
          "internalType": "uint256",
          "name": "tokenId",
          "type": "uint256"
        },
        {
          "internalType": "bytes",
          "name": "data",
          "type": "bytes"
        }
      ],
      "name": "safeTransferFrom",
      "outputs": [],
      "stateMutability": "nonpayable",
      "type": "function"
    },
    {
      "inputs": [
        {
          "internalType": "address",
          "name": "operator",
          "type": "address"
        },
        {
          "internalType": "bool",
          "name": "approved",
          "type": "bool"
        }
      ],
      "name": "setApprovalForAll",
      "outputs": [],
      "stateMutability": "nonpayable",
      "type": "function"
    },
    {
      "inputs": [
        {
          "internalType": "string",
          "name": "baseTokenURI_",
          "type": "string"
        }
      ],
      "name": "setBaseTokenURI",
      "outputs": [],
      "stateMutability": "nonpayable",
      "type": "function"
    },
    {
      "inputs": [
        {
          "internalType": "bytes4",
          "name": "interfaceId",
          "type": "bytes4"
        }
      ],
      "name": "supportsInterface",
      "outputs": [
        {
          "internalType": "bool",
          "name": "",
          "type": "bool"
        }
      ],
      "stateMutability": "view",
      "type": "function"
    },
    {
      "inputs": [],
      "name": "symbol",
      "outputs": [
        {
          "internalType": "string",
          "name": "",
          "type": "string"
        }
      ],
      "stateMutability": "view",
      "type": "function"
    },
    {
      "inputs": [
        {
          "internalType": "uint256",
          "name": "tokenId_",
          "type": "uint256"
        }
      ],
      "name": "tokenURI",
      "outputs": [
        {
          "internalType": "string",
          "name": "",
          "type": "string"
        }
      ],
      "stateMutability": "view",
      "type": "function"
    },
    {
      "inputs": [],
      "name": "totalSupply",
      "outputs": [
        {
          "internalType": "uint256",
          "name": "",
          "type": "uint256"
        }
      ],
      "stateMutability": "view",
      "type": "function"
    },
    {
      "inputs": [
        {
          "internalType": "address",
          "name": "from",
          "type": "address"
        },
        {
          "internalType": "address",
          "name": "to",
          "type": "address"
        },
        {
          "internalType": "uint256",
          "name": "tokenId",
          "type": "uint256"
        }
      ],
      "name": "transferFrom",
      "outputs": [],
      "stateMutability": "nonpayable",
      "type": "function"
    },
    {
      "inputs": [
        {
          "internalType": "address",
          "name": "newOwner",
          "type": "address"
        }
      ],
      "name": "transferOwnership",
      "outputs": [],
      "stateMutability": "nonpayable",
      "type": "function"
    }
  ],
  "bytecode": "0x60806040523480156200001157600080fd5b506040518060400160405280600a81526020017f44657646657374204c4b000000000000000000000000000000000000000000008152506040518060400160405280600581526020017f4445564c4b00000000000000000000000000000000000000000000000000000081525081600090816200008f91906200042b565b508060019081620000a191906200042b565b505050620000c4620000b8620000e360201b60201c565b620000eb60201b60201c565b60016007819055506000600a819055506101f460098190555062000512565b600033905090565b6000600660009054906101000a900473ffffffffffffffffffffffffffffffffffffffff16905081600660006101000a81548173ffffffffffffffffffffffffffffffffffffffff021916908373ffffffffffffffffffffffffffffffffffffffff1602179055508173ffffffffffffffffffffffffffffffffffffffff168173ffffffffffffffffffffffffffffffffffffffff167f8be0079c531659141344cd1fd0a4f28419497f9722a3daafe3b4186f6b6457e060405160405180910390a35050565b600081519050919050565b7f4e487b7100000000000000000000000000000000000000000000000000000000600052604160045260246000fd5b7f4e487b7100000000000000000000000000000000000000000000000000000000600052602260045260246000fd5b600060028204905060018216806200023357607f821691505b602082108103620002495762000248620001eb565b5b50919050565b60008190508160005260206000209050919050565b60006020601f8301049050919050565b600082821b905092915050565b600060088302620002b37fffffffffffffffffffffffffffffffffffffffffffffffffffffffffffffffff8262000274565b620002bf868362000274565b95508019841693508086168417925050509392505050565b6000819050919050565b6000819050919050565b60006200030c620003066200030084620002d7565b620002e1565b620002d7565b9050919050565b6000819050919050565b6200032883620002eb565b62000340620003378262000313565b84845462000281565b825550505050565b600090565b6200035762000348565b620003648184846200031d565b505050565b5b818110156200038c57620003806000826200034d565b6001810190506200036a565b5050565b601f821115620003db57620003a5816200024f565b620003b08462000264565b81016020851015620003c0578190505b620003d8620003cf8562000264565b83018262000369565b50505b505050565b600082821c905092915050565b60006200040060001984600802620003e0565b1980831691505092915050565b60006200041b8383620003ed565b9150826002028217905092915050565b6200043682620001b1565b67ffffffffffffffff811115620004525762000451620001bc565b5b6200045e82546200021a565b6200046b82828562000390565b600060209050601f831160018114620004a357600084156200048e578287015190505b6200049a85826200040d565b8655506200050a565b601f198416620004b3866200024f565b60005b82811015620004dd57848901518255600182019150602085019450602081019050620004b6565b86831015620004fd5784890151620004f9601f891682620003ed565b8355505b6001600288020188555050505b505050505050565b612ec680620005226000396000f3fe608060405234801561001057600080fd5b50600436106101375760003560e01c8063715018a6116100b8578063b6ee61681161007c578063b6ee616814610314578063b88d4fde14610330578063c87b56dd1461034c578063d5abeb011461037c578063e985e9c51461039a578063f2fde38b146103ca57610137565b8063715018a6146102a85780638da5cb5b146102b257806395d89b41146102d05780639cbf9e36146102ee578063a22cb465146102f857610137565b806323b872dd116100ff57806323b872dd146101f457806330176e131461021057806342842e0e1461022c5780636352211e1461024857806370a082311461027857610137565b806301ffc9a71461013c57806306fdde031461016c578063081812fc1461018a578063095ea7b3146101ba57806318160ddd146101d6575b600080fd5b61015660048036038101906101519190611a6e565b6103e6565b6040516101639190611ab6565b60405180910390f35b6101746104c8565b6040516101819190611b61565b60405180910390f35b6101a4600480360381019061019f9190611bb9565b61055a565b6040516101b19190611c27565b60405180910390f35b6101d460048036038101906101cf9190611c6e565b6105a0565b005b6101de6106b7565b6040516101eb9190611cbd565b60405180910390f35b61020e60048036038101906102099190611cd8565b6106bd565b005b61022a60048036038101906102259190611d90565b61071d565b005b61024660048036038101906102419190611cd8565b61073b565b005b610262600480360381019061025d9190611bb9565b61075b565b60405161026f9190611c27565b60405180910390f35b610292600480360381019061028d9190611ddd565b61080c565b60405161029f9190611cbd565b60405180910390f35b6102b06108c3565b005b6102ba6108d7565b6040516102c79190611c27565b60405180910390f35b6102d8610901565b6040516102e59190611b61565b60405180910390f35b6102f6610993565b005b610312600480360381019061030d9190611e36565b6109a6565b005b61032e60048036038101906103299190611ddd565b6109bc565b005b61034a60048036038101906103459190611fa6565b610a0e565b005b61036660048036038101906103619190611bb9565b610a70565b6040516103739190611b61565b60405180910390f35b610384610aec565b6040516103919190611cbd565b60405180910390f35b6103b460048036038101906103af9190612029565b610af2565b6040516103c19190611ab6565b60405180910390f35b6103e460048036038101906103df9190611ddd565b610b86565b005b60007f80ac58cd000000000000000000000000000000000000000000000000000000007bffffffffffffffffffffffffffffffffffffffffffffffffffffffff1916827bffffffffffffffffffffffffffffffffffffffffffffffffffffffff191614806104b157507f5b5e139f000000000000000000000000000000000000000000000000000000007bffffffffffffffffffffffffffffffffffffffffffffffffffffffff1916827bffffffffffffffffffffffffffffffffffffffffffffffffffffffff1916145b806104c157506104c082610c09565b5b9050919050565b6060600080546104d790612098565b80601f016020809104026020016040519081016040528092919081815260200182805461050390612098565b80156105505780601f1061052557610100808354040283529160200191610550565b820191906000526020600020905b81548152906001019060200180831161053357829003601f168201915b5050505050905090565b600061056582610c73565b6004600083815260200190815260200160002060009054906101000a900473ffffffffffffffffffffffffffffffffffffffff169050919050565b60006105ab8261075b565b90508073ffffffffffffffffffffffffffffffffffffffff168373ffffffffffffffffffffffffffffffffffffffff160361061b576040517f08c379a00000000000000000000000000000000000000000000000000000000081526004016106129061213b565b60405180910390fd5b8073ffffffffffffffffffffffffffffffffffffffff1661063a610cbe565b73ffffffffffffffffffffffffffffffffffffffff161480610669575061066881610663610cbe565b610af2565b5b6106a8576040517f08c379a000000000000000000000000000000000000000000000000000000000815260040161069f906121cd565b60405180910390fd5b6106b28383610cc6565b505050565b600a5481565b6106ce6106c8610cbe565b82610d7f565b61070d576040517f08c379a00000000000000000000000000000000000000000000000000000000081526004016107049061225f565b60405180910390fd5b610718838383610e14565b505050565b61072561107a565b8181600b9182610736929190612436565b505050565b61075683838360405180602001604052806000815250610a0e565b505050565b6000806002600084815260200190815260200160002060009054906101000a900473ffffffffffffffffffffffffffffffffffffffff169050600073ffffffffffffffffffffffffffffffffffffffff168173ffffffffffffffffffffffffffffffffffffffff1603610803576040517f08c379a00000000000000000000000000000000000000000000000000000000081526004016107fa90612552565b60405180910390fd5b80915050919050565b60008073ffffffffffffffffffffffffffffffffffffffff168273ffffffffffffffffffffffffffffffffffffffff160361087c576040517f08c379a0000000000000000000000000000000000000000000000000000000008152600401610873906125e4565b60405180910390fd5b600360008373ffffffffffffffffffffffffffffffffffffffff1673ffffffffffffffffffffffffffffffffffffffff168152602001908152602001600020549050919050565b6108cb61107a565b6108d560006110f8565b565b6000600660009054906101000a900473ffffffffffffffffffffffffffffffffffffffff16905090565b60606001805461091090612098565b80601f016020809104026020016040519081016040528092919081815260200182805461093c90612098565b80156109895780601f1061095e57610100808354040283529160200191610989565b820191906000526020600020905b81548152906001019060200180831161096c57829003601f168201915b5050505050905090565b6109a43361099f6111be565b611244565b565b6109b86109b1610cbe565b8383611262565b5050565b6109c461107a565b610a0b816109d06111be565b6040518060400160405280600581526020017f41646d696e0000000000000000000000000000000000000000000000000000008152506113ce565b50565b610a1f610a19610cbe565b83610d7f565b610a5e576040517f08c379a0000000000000000000000000000000000000000000000000000000008152600401610a559061225f565b60405180910390fd5b610a6a84848484611429565b50505050565b6060610a7b82611485565b610aba576040517f08c379a0000000000000000000000000000000000000000000000000000000008152600401610ab190612650565b60405180910390fd5b600b610ac5836114f1565b604051602001610ad692919061277b565b6040516020818303038152906040529050919050565b60095481565b6000600560008473ffffffffffffffffffffffffffffffffffffffff1673ffffffffffffffffffffffffffffffffffffffff16815260200190815260200160002060008373ffffffffffffffffffffffffffffffffffffffff1673ffffffffffffffffffffffffffffffffffffffff16815260200190815260200160002060009054906101000a900460ff16905092915050565b610b8e61107a565b600073ffffffffffffffffffffffffffffffffffffffff168173ffffffffffffffffffffffffffffffffffffffff1603610bfd576040517f08c379a0000000000000000000000000000000000000000000000000000000008152600401610bf49061281c565b60405180910390fd5b610c06816110f8565b50565b60007f01ffc9a7000000000000000000000000000000000000000000000000000000007bffffffffffffffffffffffffffffffffffffffffffffffffffffffff1916827bffffffffffffffffffffffffffffffffffffffffffffffffffffffff1916149050919050565b610c7c81611485565b610cbb576040517f08c379a0000000000000000000000000000000000000000000000000000000008152600401610cb290612552565b60405180910390fd5b50565b600033905090565b816004600083815260200190815260200160002060006101000a81548173ffffffffffffffffffffffffffffffffffffffff021916908373ffffffffffffffffffffffffffffffffffffffff160217905550808273ffffffffffffffffffffffffffffffffffffffff16610d398361075b565b73ffffffffffffffffffffffffffffffffffffffff167f8c5be1e5ebec7d5bd14f71427d1e84f3dd0314c0f7b2291e5b200ac8c7c3b92560405160405180910390a45050565b600080610d8b8361075b565b90508073ffffffffffffffffffffffffffffffffffffffff168473ffffffffffffffffffffffffffffffffffffffff161480610dcd5750610dcc8185610af2565b5b80610e0b57508373ffffffffffffffffffffffffffffffffffffffff16610df38461055a565b73ffffffffffffffffffffffffffffffffffffffff16145b91505092915050565b8273ffffffffffffffffffffffffffffffffffffffff16610e348261075b565b73ffffffffffffffffffffffffffffffffffffffff1614610e8a576040517f08c379a0000000000000000000000000000000000000000000000000000000008152600401610e81906128ae565b60405180910390fd5b600073ffffffffffffffffffffffffffffffffffffffff168273ffffffffffffffffffffffffffffffffffffffff1603610ef9576040517f08c379a0000000000000000000000000000000000000000000000000000000008152600401610ef090612940565b60405180910390fd5b610f04838383611651565b610f0f600082610cc6565b6001600360008573ffffffffffffffffffffffffffffffffffffffff1673ffffffffffffffffffffffffffffffffffffffff1681526020019081526020016000206000828254610f5f919061298f565b925050819055506001600360008473ffffffffffffffffffffffffffffffffffffffff1673ffffffffffffffffffffffffffffffffffffffff1681526020019081526020016000206000828254610fb691906129c3565b92505081905550816002600083815260200190815260200160002060006101000a81548173ffffffffffffffffffffffffffffffffffffffff021916908373ffffffffffffffffffffffffffffffffffffffff160217905550808273ffffffffffffffffffffffffffffffffffffffff168473ffffffffffffffffffffffffffffffffffffffff167fddf252ad1be2c89b69c2b068fc378daa952ba7f163c4a11628f55a4df523b3ef60405160405180910390a4611075838383611656565b505050565b611082610cbe565b73ffffffffffffffffffffffffffffffffffffffff166110a06108d7565b73ffffffffffffffffffffffffffffffffffffffff16146110f6576040517f08c379a00000000000000000000000000000000000000000000000000000000081526004016110ed90612a43565b60405180910390fd5b565b6000600660009054906101000a900473ffffffffffffffffffffffffffffffffffffffff16905081600660006101000a81548173ffffffffffffffffffffffffffffffffffffffff021916908373ffffffffffffffffffffffffffffffffffffffff1602179055508173ffffffffffffffffffffffffffffffffffffffff168173ffffffffffffffffffffffffffffffffffffffff167f8be0079c531659141344cd1fd0a4f28419497f9722a3daafe3b4186f6b6457e060405160405180910390a35050565b60006009546001600a546111d291906129c3565b1115611213576040517f08c379a000000000000000000000000000000000000000000000000000000000815260040161120a90612aaf565b60405180910390fd5b61121d600861165b565b600a600081548092919061123090612acf565b919050555061123f6008611671565b905090565b61125e8282604051806020016040528060008152506113ce565b5050565b8173ffffffffffffffffffffffffffffffffffffffff168373ffffffffffffffffffffffffffffffffffffffff16036112d0576040517f08c379a00000000000000000000000000000000000000000000000000000000081526004016112c790612b63565b60405180910390fd5b80600560008573ffffffffffffffffffffffffffffffffffffffff1673ffffffffffffffffffffffffffffffffffffffff16815260200190815260200160002060008473ffffffffffffffffffffffffffffffffffffffff1673ffffffffffffffffffffffffffffffffffffffff16815260200190815260200160002060006101000a81548160ff0219169083151502179055508173ffffffffffffffffffffffffffffffffffffffff168373ffffffffffffffffffffffffffffffffffffffff167f17307eab39ab6107e8899845ad3d59bd9653f200f220920489ca2b5937696c31836040516113c19190611ab6565b60405180910390a3505050565b6113d8838361167f565b6113e56000848484611858565b611424576040517f08c379a000000000000000000000000000000000000000000000000000000000815260040161141b90612bf5565b60405180910390fd5b505050565b611434848484610e14565b61144084848484611858565b61147f576040517f08c379a000000000000000000000000000000000000000000000000000000000815260040161147690612bf5565b60405180910390fd5b50505050565b60008073ffffffffffffffffffffffffffffffffffffffff166002600084815260200190815260200160002060009054906101000a900473ffffffffffffffffffffffffffffffffffffffff1673ffffffffffffffffffffffffffffffffffffffff1614159050919050565b606060008203611538576040518060400160405280600181526020017f3000000000000000000000000000000000000000000000000000000000000000815250905061164c565b600082905060005b6000821461156a57808061155390612acf565b915050600a826115639190612c44565b9150611540565b60008167ffffffffffffffff81111561158657611585611e7b565b5b6040519080825280601f01601f1916602001820160405280156115b85781602001600182028036833780820191505090505b5090505b60008514611645576001826115d1919061298f565b9150600a856115e09190612c75565b60306115ec91906129c3565b60f81b81838151811061160257611601612ca6565b5b60200101907effffffffffffffffffffffffffffffffffffffffffffffffffffffffffffff1916908160001a905350600a8561163e9190612c44565b94506115bc565b8093505050505b919050565b505050565b505050565b6001816000016000828254019250508190555050565b600081600001549050919050565b600073ffffffffffffffffffffffffffffffffffffffff168273ffffffffffffffffffffffffffffffffffffffff16036116ee576040517f08c379a00000000000000000000000000000000000000000000000000000000081526004016116e590612d21565b60405180910390fd5b6116f781611485565b15611737576040517f08c379a000000000000000000000000000000000000000000000000000000000815260040161172e90612d8d565b60405180910390fd5b61174360008383611651565b6001600360008473ffffffffffffffffffffffffffffffffffffffff1673ffffffffffffffffffffffffffffffffffffffff168152602001908152602001600020600082825461179391906129c3565b92505081905550816002600083815260200190815260200160002060006101000a81548173ffffffffffffffffffffffffffffffffffffffff021916908373ffffffffffffffffffffffffffffffffffffffff160217905550808273ffffffffffffffffffffffffffffffffffffffff16600073ffffffffffffffffffffffffffffffffffffffff167fddf252ad1be2c89b69c2b068fc378daa952ba7f163c4a11628f55a4df523b3ef60405160405180910390a461185460008383611656565b5050565b60006118798473ffffffffffffffffffffffffffffffffffffffff166119df565b156119d2578373ffffffffffffffffffffffffffffffffffffffff1663150b7a026118a2610cbe565b8786866040518563ffffffff1660e01b81526004016118c49493929190612e02565b6020604051808303816000875af192505050801561190057506040513d601f19601f820116820180604052508101906118fd9190612e63565b60015b611982573d8060008114611930576040519150601f19603f3d011682016040523d82523d6000602084013e611935565b606091505b50600081510361197a576040517f08c379a000000000000000000000000000000000000000000000000000000000815260040161197190612bf5565b60405180910390fd5b805181602001fd5b63150b7a0260e01b7bffffffffffffffffffffffffffffffffffffffffffffffffffffffff1916817bffffffffffffffffffffffffffffffffffffffffffffffffffffffff1916149150506119d7565b600190505b949350505050565b6000808273ffffffffffffffffffffffffffffffffffffffff163b119050919050565b6000604051905090565b600080fd5b600080fd5b60007fffffffff0000000000000000000000000000000000000000000000000000000082169050919050565b611a4b81611a16565b8114611a5657600080fd5b50565b600081359050611a6881611a42565b92915050565b600060208284031215611a8457611a83611a0c565b5b6000611a9284828501611a59565b91505092915050565b60008115159050919050565b611ab081611a9b565b82525050565b6000602082019050611acb6000830184611aa7565b92915050565b600081519050919050565b600082825260208201905092915050565b60005b83811015611b0b578082015181840152602081019050611af0565b60008484015250505050565b6000601f19601f8301169050919050565b6000611b3382611ad1565b611b3d8185611adc565b9350611b4d818560208601611aed565b611b5681611b17565b840191505092915050565b60006020820190508181036000830152611b7b8184611b28565b905092915050565b6000819050919050565b611b9681611b83565b8114611ba157600080fd5b50565b600081359050611bb381611b8d565b92915050565b600060208284031215611bcf57611bce611a0c565b5b6000611bdd84828501611ba4565b91505092915050565b600073ffffffffffffffffffffffffffffffffffffffff82169050919050565b6000611c1182611be6565b9050919050565b611c2181611c06565b82525050565b6000602082019050611c3c6000830184611c18565b92915050565b611c4b81611c06565b8114611c5657600080fd5b50565b600081359050611c6881611c42565b92915050565b60008060408385031215611c8557611c84611a0c565b5b6000611c9385828601611c59565b9250506020611ca485828601611ba4565b9150509250929050565b611cb781611b83565b82525050565b6000602082019050611cd26000830184611cae565b92915050565b600080600060608486031215611cf157611cf0611a0c565b5b6000611cff86828701611c59565b9350506020611d1086828701611c59565b9250506040611d2186828701611ba4565b9150509250925092565b600080fd5b600080fd5b600080fd5b60008083601f840112611d5057611d4f611d2b565b5b8235905067ffffffffffffffff811115611d6d57611d6c611d30565b5b602083019150836001820283011115611d8957611d88611d35565b5b9250929050565b60008060208385031215611da757611da6611a0c565b5b600083013567ffffffffffffffff811115611dc557611dc4611a11565b5b611dd185828601611d3a565b92509250509250929050565b600060208284031215611df357611df2611a0c565b5b6000611e0184828501611c59565b91505092915050565b611e1381611a9b565b8114611e1e57600080fd5b50565b600081359050611e3081611e0a565b92915050565b60008060408385031215611e4d57611e4c611a0c565b5b6000611e5b85828601611c59565b9250506020611e6c85828601611e21565b9150509250929050565b600080fd5b7f4e487b7100000000000000000000000000000000000000000000000000000000600052604160045260246000fd5b611eb382611b17565b810181811067ffffffffffffffff82111715611ed257611ed1611e7b565b5b80604052505050565b6000611ee5611a02565b9050611ef18282611eaa565b919050565b600067ffffffffffffffff821115611f1157611f10611e7b565b5b611f1a82611b17565b9050602081019050919050565b82818337600083830152505050565b6000611f49611f4484611ef6565b611edb565b905082815260208101848484011115611f6557611f64611e76565b5b611f70848285611f27565b509392505050565b600082601f830112611f8d57611f8c611d2b565b5b8135611f9d848260208601611f36565b91505092915050565b60008060008060808587031215611fc057611fbf611a0c565b5b6000611fce87828801611c59565b9450506020611fdf87828801611c59565b9350506040611ff087828801611ba4565b925050606085013567ffffffffffffffff81111561201157612010611a11565b5b61201d87828801611f78565b91505092959194509250565b600080604083850312156120405761203f611a0c565b5b600061204e85828601611c59565b925050602061205f85828601611c59565b9150509250929050565b7f4e487b7100000000000000000000000000000000000000000000000000000000600052602260045260246000fd5b600060028204905060018216806120b057607f821691505b6020821081036120c3576120c2612069565b5b50919050565b7f4552433732313a20617070726f76616c20746f2063757272656e74206f776e6560008201527f7200000000000000000000000000000000000000000000000000000000000000602082015250565b6000612125602183611adc565b9150612130826120c9565b604082019050919050565b6000602082019050818103600083015261215481612118565b9050919050565b7f4552433732313a20617070726f76652063616c6c6572206973206e6f7420746f60008201527f6b656e206f776e6572206e6f7220617070726f76656420666f7220616c6c0000602082015250565b60006121b7603e83611adc565b91506121c28261215b565b604082019050919050565b600060208201905081810360008301526121e6816121aa565b9050919050565b7f4552433732313a2063616c6c6572206973206e6f7420746f6b656e206f776e6560008201527f72206e6f7220617070726f766564000000000000000000000000000000000000602082015250565b6000612249602e83611adc565b9150612254826121ed565b604082019050919050565b600060208201905081810360008301526122788161223c565b9050919050565b600082905092915050565b60008190508160005260206000209050919050565b60006020601f8301049050919050565b600082821b905092915050565b6000600883026122ec7fffffffffffffffffffffffffffffffffffffffffffffffffffffffffffffffff826122af565b6122f686836122af565b95508019841693508086168417925050509392505050565b6000819050919050565b600061233361232e61232984611b83565b61230e565b611b83565b9050919050565b6000819050919050565b61234d83612318565b6123616123598261233a565b8484546122bc565b825550505050565b600090565b612376612369565b612381818484612344565b505050565b5b818110156123a55761239a60008261236e565b600181019050612387565b5050565b601f8211156123ea576123bb8161228a565b6123c48461229f565b810160208510156123d3578190505b6123e76123df8561229f565b830182612386565b50505b505050565b600082821c905092915050565b600061240d600019846008026123ef565b1980831691505092915050565b600061242683836123fc565b9150826002028217905092915050565b612440838361227f565b67ffffffffffffffff81111561245957612458611e7b565b5b6124638254612098565b61246e8282856123a9565b6000601f83116001811461249d576000841561248b578287013590505b612495858261241a565b8655506124fd565b601f1984166124ab8661228a565b60005b828110156124d3578489013582556001820191506020850194506020810190506124ae565b868310156124f057848901356124ec601f8916826123fc565b8355505b6001600288020188555050505b50505050505050565b7f4552433732313a20696e76616c696420746f6b656e2049440000000000000000600082015250565b600061253c601883611adc565b915061254782612506565b602082019050919050565b6000602082019050818103600083015261256b8161252f565b9050919050565b7f4552433732313a2061646472657373207a65726f206973206e6f74206120766160008201527f6c6964206f776e65720000000000000000000000000000000000000000000000602082015250565b60006125ce602983611adc565b91506125d982612572565b604082019050919050565b600060208201905081810360008301526125fd816125c1565b9050919050565b7f546f6b656e20646f6573206e6f74206578697374000000000000000000000000600082015250565b600061263a601483611adc565b915061264582612604565b602082019050919050565b600060208201905081810360008301526126698161262d565b9050919050565b600081905092915050565b6000815461268881612098565b6126928186612670565b945060018216600081146126ad57600181146126c2576126f5565b60ff19831686528115158202860193506126f5565b6126cb8561228a565b60005b838110156126ed578154818901526001820191506020810190506126ce565b838801955050505b50505092915050565b600061270982611ad1565b6127138185612670565b9350612723818560208601611aed565b80840191505092915050565b7f2e6a736f6e000000000000000000000000000000000000000000000000000000600082015250565b6000612765600583612670565b91506127708261272f565b600582019050919050565b6000612787828561267b565b915061279382846126fe565b915061279e82612758565b91508190509392505050565b7f4f776e61626c653a206e6577206f776e657220697320746865207a65726f206160008201527f6464726573730000000000000000000000000000000000000000000000000000602082015250565b6000612806602683611adc565b9150612811826127aa565b604082019050919050565b60006020820190508181036000830152612835816127f9565b9050919050565b7f4552433732313a207472616e736665722066726f6d20696e636f72726563742060008201527f6f776e6572000000000000000000000000000000000000000000000000000000602082015250565b6000612898602583611adc565b91506128a38261283c565b604082019050919050565b600060208201905081810360008301526128c78161288b565b9050919050565b7f4552433732313a207472616e7366657220746f20746865207a65726f2061646460008201527f7265737300000000000000000000000000000000000000000000000000000000602082015250565b600061292a602483611adc565b9150612935826128ce565b604082019050919050565b600060208201905081810360008301526129598161291d565b9050919050565b7f4e487b7100000000000000000000000000000000000000000000000000000000600052601160045260246000fd5b600061299a82611b83565b91506129a583611b83565b92508282039050818111156129bd576129bc612960565b5b92915050565b60006129ce82611b83565b91506129d983611b83565b92508282019050808211156129f1576129f0612960565b5b92915050565b7f4f776e61626c653a2063616c6c6572206973206e6f7420746865206f776e6572600082015250565b6000612a2d602083611adc565b9150612a38826129f7565b602082019050919050565b60006020820190508181036000830152612a5c81612a20565b9050919050565b7f4d617820737570706c7920657863656564656421000000000000000000000000600082015250565b6000612a99601483611adc565b9150612aa482612a63565b602082019050919050565b60006020820190508181036000830152612ac881612a8c565b9050919050565b6000612ada82611b83565b91507fffffffffffffffffffffffffffffffffffffffffffffffffffffffffffffffff8203612b0c57612b0b612960565b5b600182019050919050565b7f4552433732313a20617070726f766520746f2063616c6c657200000000000000600082015250565b6000612b4d601983611adc565b9150612b5882612b17565b602082019050919050565b60006020820190508181036000830152612b7c81612b40565b9050919050565b7f4552433732313a207472616e7366657220746f206e6f6e20455243373231526560008201527f63656976657220696d706c656d656e7465720000000000000000000000000000602082015250565b6000612bdf603283611adc565b9150612bea82612b83565b604082019050919050565b60006020820190508181036000830152612c0e81612bd2565b9050919050565b7f4e487b7100000000000000000000000000000000000000000000000000000000600052601260045260246000fd5b6000612c4f82611b83565b9150612c5a83611b83565b925082612c6a57612c69612c15565b5b828204905092915050565b6000612c8082611b83565b9150612c8b83611b83565b925082612c9b57612c9a612c15565b5b828206905092915050565b7f4e487b7100000000000000000000000000000000000000000000000000000000600052603260045260246000fd5b7f4552433732313a206d696e7420746f20746865207a65726f2061646472657373600082015250565b6000612d0b602083611adc565b9150612d1682612cd5565b602082019050919050565b60006020820190508181036000830152612d3a81612cfe565b9050919050565b7f4552433732313a20746f6b656e20616c7265616479206d696e74656400000000600082015250565b6000612d77601c83611adc565b9150612d8282612d41565b602082019050919050565b60006020820190508181036000830152612da681612d6a565b9050919050565b600081519050919050565b600082825260208201905092915050565b6000612dd482612dad565b612dde8185612db8565b9350612dee818560208601611aed565b612df781611b17565b840191505092915050565b6000608082019050612e176000830187611c18565b612e246020830186611c18565b612e316040830185611cae565b8181036060830152612e438184612dc9565b905095945050505050565b600081519050612e5d81611a42565b92915050565b600060208284031215612e7957612e78611a0c565b5b6000612e8784828501612e4e565b9150509291505056fea26469706673582212204cf76e4166d3b44008833b24926c52201f4269ebe5864028976ca68c2daf78cb64736f6c63430008110033",
  "linkReferences": {},
  "deployedLinkReferences": {}
}